:100000000C9461000C947E000C947E000C947E0095
:100010000C947E000C947E000C947E000C947E0068
:100020000C947E000C947E000C947E000C947E0058
:100030000C947E000C947E000C947E000C947E0048
:100040000C9470010C947E000C947E000C947E0045
:100050000C947E000C947E000C947E000C947E0028
:100060000C947E000C947E0000000000230026000B
:10007000290000000008000201000003040700003E
:1000800000000000000000000000250028002B00F8
:1000900000000000240027002A00040404040404D3
:1000A0000404020202020202030303030303010227
:1000B00004081020408001020408102001020408F6
:1000C000102011241FBECFEFD8E0DEBFCDBF11E05E
:1000D000A0E0B1E0E4E2F5E002C005900D92A031AD
:1000E000B107D9F721E0A0E1B1E001C01D92A9312B
:1000F000B207E1F70E94BA010C9490020C94000040
:10010000833081F028F4813099F08230A9F008958D
:100110008730A9F08830C9F08430B1F48091800034
:100120008F7D03C0809180008F7780938000089539
:1001300084B58F7784BD089584B58F7DFBCF809182
:10014000B0008F778093B00008958091B0008F7DCC
:10015000F9CFCF93DF93282F30E0F901EE58FF4F0E
:100160008491F901E255FF4FD491F901E656FF4F12
:10017000C491CC23A1F081110E948000EC2FF0E00B
:10018000EE0FFF1FE859FF4FA591B491EC91ED23BD
:1001900081E090E009F480E0DF91CF91089580E064
:1001A00090E0FACF1F93CF93DF93282F30E0F9012F
:1001B000EE58FF4F8491F901E255FF4FD491F901B8
:1001C000E656FF4FC491CC23A9F0162F81110E944F
:1001D0008000EC2FF0E0EE0FFF1FEA57FF4FA591D4
:1001E000B4918FB7F894EC91111108C0D095DE232B
:1001F000DC938FBFDF91CF911F910895DE2BF8CF55
:100200003FB7F8948091150190911601A0911701C4
:10021000B091180126B5A89B05C02F3F19F0019693
:10022000A11DB11D3FBFBA2FA92F982F8827BC0150
:10023000CD01620F711D811D911D42E0660F771F78
:10024000881F991F4A95D1F708958F929F92AF9278
:10025000BF92CF92DF92EF92FF920E9400014B017A
:100260005C018AE0C82ED12CE12CF12C0E94000107
:10027000681979098A099B09683E734081059105CF
:10028000A8F321E0C21AD108E108F10888EE880E2F
:1002900083E0981EA11CB11CC114D104E104F10437
:1002A00029F7FF90EF90DF90CF90BF90AF909F9095
:1002B0008F9008951F93CF93DF93182FC2E3D0E060
:1002C000812F0E94A900019731F481E090E0DF9135
:1002D000CF911F9108950E942501219789F7F7CFAB
:1002E0001F920F920FB60F9211242F933F938F936B
:1002F0009F93AF93BF938091110190911201A091B0
:100300001301B09114013091100123E0230F2D3718
:1003100058F50196A11DB11D209310018093110184
:1003200090931201A0931301B093140180911501D1
:1003300090911601A0911701B09118010196A11D8D
:10034000B11D8093150190931601A0931701B093EE
:100350001801BF91AF919F918F913F912F910F9075
:100360000FBE0F901F90189526E8230F0296A11D2F
:10037000B11DD2CF789484B5826084BD84B581608C
:1003800084BD85B5826085BD85B5816085BD809160
:100390006E00816080936E001092810080918100D8
:1003A00082608093810080918100816080938100D0
:1003B000809180008160809380008091B100846092
:1003C0008093B1008091B00081608093B0008091F3
:1003D0007A00846080937A0080917A0082608093B2
:1003E0007A0080917A00816080937A0080917A000F
:1003F000806880937A001092C100A0E0B1E08D91F6
:100400009D919927FC01E255FF4F249186569F4FFD
:10041000FC018491882399F090E0880F991FFC01DA
:10042000E057FF4FC591D491FC01EA57FF4F8591EA
:1004300094918FB7F894E881E22BE8838FBFF1E0C5
:10044000A031BF07E1F6C0E0D1E08881229660E0EC
:100450000E94D20081E0C031D807B9F780E0E82ED1
:1004600080E0F82E8BE00E94A9000197F1F404E0EF
:1004700010E0C0E0D1E08881229661E00E94D200C5
:10048000E1E0C031DE07B9F78AE090E00E945A014E
:10049000C0E0D1E0019741F58881229660E00E949A
:1004A000D200F1E0C031DF07B9F78AE00E94A9006D
:1004B000019791F4C0E0D1E01881229661E0812F8C
:1004C0000E94D2008BE090E00E945A0160E0019708
:1004D000F9F4812F0E94D2000E942501E114F10459
:1004E00009F20E940000BECF8881229660E00E943F
:1004F000D20081E0C031D807B9F78AE090E00E94CD
:100500005A01019791F20150110909F0B2CFCDCFF4
:10051000812F0E94D200E1E0C031DE0769F6DCCF16
:04052000F894FFCF7D
:10052400020003000400050006000700080009009B
:00000001FF
